:020000040800F2
:1000000098060020A1010008A9010008AB01000822
:1000100000000000000000000000000000000000E0
:10002000000000000000000000000000AD0100081A
:100030000000000000000000AF010008851A000861
:10004000B3010008B3010008B3010008B3010008C0
:10005000B3010008B3010008B3010008B3010008B0
:10006000B3010008B3010008B3010008B3010008A0
:10007000B3010008B3010008B3010008B301000890
:10008000B3010008B3010008B3010008000000003C
:10009000B3010008B3010008B3010008B301000870
:1000A000B3010008B3010008B3010008B301000860
:1000B000B3010008B3010008B3010008B301000850
:1000C00000F002F800F05CF812A030C808382418DC
:1000D0002D18AC4201D100F053F80FCCA246AB462C
:1000E0000CA730CF2D1B083F3F197C427F1E544484
:1000F0002D090426F441641EAC4201D300F040F8FF
:100100000126334200D0FB1A3343984754465D46DC
:10011000DFE700004824000068240000103A02D302
:1001200078C878C1FAD8520701D330C830C101D598
:1001300004680C6070470000704700000023002432
:1001400000250026103A01D378C1FBD8520700D30E
:1001500030C100D50B60704710B5662902D102F09E
:100160006BF910BD002010BD1FB500F0D3FE0400D8
:100170000020002102F04AF9E0601FBD10B510BD5B
:1001800001F092FA1146FFF7EFFF01F083FC01F056
:10019000AAFA03B4FFF7F2FF03BC01F005FB00006D
:1001A0000748804707480047FEE7FEE7FEE7FEE70F
:1001B000FEE7FEE704480549054A064B7047000084
:1001C000911A0008C100000898000020980600203D
:1001D00098020020980200200FB41CB5074B06AA15
:1001E0007B4469460090059800F07BFE002069463C
:1001F00000F08AFE1CBC08BC04B01847250D0000A6
:10020000F3B50446002081B020622046E1688847AB
:1002100000287AD0252802D06268A16871E0E168E0
:1002200020460025884706460020E0610746A06179
:100230002A2E0AD0304602F0E1F8002827D0B80074
:100240000019303E0090866119E00298BA00121938
:1002500002C8916102902046E1688847012F064656
:1002600017D1E06900281FDA202085431CE00098A0
:100270000A218069484300998019303888612046F6
:10028000E1688847064602F0B9F80028EFD1012F4F
:100290000AD02E2E08D12046E16888470646202045
:1002A00005437F1C022FC3DBA069002803DA40420C
:1002B000A06101200543E80701D010208543002EEE
:1002C00023D030464138192803D80120C002054305
:1002D0002036204625603146029A1546FFF73CFF3E
:1002E00000280BD0012806D0ED1DE808C00008301A
:1002F00002908AE709E02D1D029586E76268304684
:10030000A1689047206A401C7EE7206AFEBD00007D
:1003100030B5441C03E00178401C00290DD0810752
:10032000F9D10B4BDD0104C8D11A91432940FAD011
:10033000001B0A0603D0C01E30BD001B30BD0A04DE
:1003400001D0801E30BD0902FCD0401E30BD00002F
:1003500001010101002203098B4273D3030A8B427E
:1003600058D3030B8B423CD3030C8B4221D312E0B6
:1003700003460B437FD4002243088B4274D3030906
:100380008B425FD3030A8B4244D3030B8B4228D3A7
:10039000030C8B420DD30902FF2212BA030C8B42CD
:1003A00002D31212090265D0030B8B4219D300E06D
:1003B000090AC30B8B4201D3CB03C01A5241830BF2
:1003C0008B4201D38B03C01A5241430B8B4201D3A2
:1003D0004B03C01A5241030B8B4201D30B03C01ACB
:1003E0005241C30A8B4201D3CB02C01A5241830A45
:1003F0008B4201D38B02C01A5241430A8B4201D374
:100400004B02C01A5241030A8B4201D30B02C01A9D
:100410005241CDD2C3098B4201D3CB01C01A524104
:1004200083098B4201D38B01C01A524143098B428D
:1004300001D34B01C01A524103098B4201D30B0176
:10044000C01A5241C3088B4201D3CB00C01A52419B
:1004500083088B4201D38B00C01A524143088B4260
:1004600001D34B00C01A5241411A00D201465241F9
:10047000104670475DE0CA0F00D04942031000D318
:10048000404253409C46002203098B422DD3030A6D
:100490008B4212D38901FC2212BA030A8B420CD37D
:1004A000890192118B4208D3890192118B4204D3A6
:1004B00089013AD0921100E08909C3098B4201D326
:1004C000CB01C01A524183098B4201D38B01C01A60
:1004D000524143098B4201D34B01C01A52410309D7
:1004E0008B4201D30B01C01A5241C3088B4201D386
:1004F000CB00C01A524183088B4201D38B00C01A33
:100500005241D9D243088B4201D34B00C01A524109
:10051000411A00D201465241104663465B1001D396
:100520004042002B00D54942704763465B1000D320
:10053000404201B50449002802DC491C084000E0A3
:100540000846C046C04602BDFFFFFF7F70477047A8
:10055000704700000246C80FC00781434B0030B50A
:100560004B405B009B0D20D01923DB06C9180123EB
:100570001B05994220DB0324A40704251346AB4046
:100580000BD3002B04D1EB0613409B00E34204D4B1
:1005900001246407002312195941FF231B059942C6
:1005A0000BD2C9000143500F09E0CB0204D501432F
:1005B0000803024305D0054830BDFF21C9050843A3
:1005C00030BD084607210905884330BD0000C07FC3
:1005D000F0B5F94D0C091E092C402E402F468BB06A
:1005E000A7437DD0B543FCD0002E7AD0002CFCD0A0
:1005F0000D465D40ED0F2543AC1BFF25AD0464198E
:100600000894C502440DC9022143500DDC02044385
:100610000120C00701430443D2020191200C110CB8
:1006200000958C46010423468B430A9161460904D8
:10063000E24D8A430991010A7D44491980390978BC
:1006400005464D4301266D18F605751B6943C90C17
:10065000640B891C4C436418B5012C1B250C2E041B
:10066000B4434C434D43210C691889090591009D01
:10067000E90701D00121C90704912C4601996708B7
:10068000CD072F434C08059DE10B4D432D0C29460A
:100690006646754302950D4645432E46029D7D1BD9
:1006A000B44100950D465D4301942C0C2F040D467A
:1006B0005543AE462D0C3D43029503947546049C6C
:1006C0002D04641B049406D2029C039D641C002626
:1006D00075410395029401AC70CC009F7D1B01E035
:1006E0003EE162E1B4410904009507910194059946
:1006F000A4086143090C0C464443650BE7040C460F
:1007000066467443A646640B3C43039502947446C4
:10071000049DE4042C1B049406D2029C039D641CDB
:10072000002675410395029401AC70CC009F7D1B9F
:10073000B44101940C465C430095650FE7000C46FC
:100740005443A646640F3C43039502947446049DAB
:10075000E4002C1B049406D2029C039D641C00261A
:1007600075410395029401AC70CC009F7D1BB44190
:10077000AE09AF06049DC900AD092F43049DA40630
:10078000AD060495079D344369180791059DE10B5B
:100790004D432D0C29466646754302950D4645434B
:1007A0002E46029D7D1BB44100950D465D4301948C
:1007B0002C0C2F040D465543AE462D0C3D4302959F
:1007C00003947546049C2D04641B049406D2029C79
:1007D000039D641C002675410395029401AC70CC06
:1007E000009F7D1BB44101948C050694079C890AE7
:1007F000611800950791019C0599A4086143090CB3
:100800000D464543680BEF040D46644665436C0B8B
:100810003C43049FED047D1BAC4602D20025641CC2
:100820006841009E019D371B85410846584301954C
:100830000C46460FC5005443600F28436546E4004C
:100840002C1B02D20025401C6E41019D3F1AB54170
:100850002846BD09800628438446A009BF064E02EB
:100860000699A40676180743079D002068410A9957
:10087000079019430020099B00906046FF1913431D
:100880004041E20F64003A43A4460446D71A8C4123
:10089000A04203D90120009020463A46C70F941881
:1008A00040416246D20F2243644664000494009C97
:1008B000BE466400D71AA446044602978C41774688
:1008C000002F01D1A04204D96046401C8446029A00
:1008D0002046C40FA64694184041049A0546D20FFC
:1008E000224364466400D31A8D417146002901D128
:1008F000A84202D928461A46641C10430122002847
:1009000000D0164361020020079B891904465C4110
:100910000223002C02DB491813466441089DCE0ACD
:100920002D145D194B056705E10A2C050D19089971
:100930003E43C9076940002B08D0934006D30022EC
:10094000761C5141002B01D1760876001C4A002DFF
:1009500043DB154241D0AA433FD030460BB0F0BD37
:1009600006180D464D41174C7642AC411AD39518E6
:100970001C465C41134A6D42A24113D30122520529
:100980004C00D4420AD15C00D4420BD04B4002D57B
:1009900092021143E2E749004908DFE75940C90FD5
:1009A000C90718E000200849D8E7054801420DD1E1
:1009B0000342F7D0F2E700000000FF070C1E000022
:1009C0000000F07F0000E0FF0000F87F1148594070
:1009D0000143C01241400020C0E70123089A9B0652
:1009E0009A4205DC032252078918C90FC907B5E7E7
:1009F000052252078918074A1143D2125140ADE728
:100A000070B515461C4602460B4628462146FFF7A0
:100A1000DFFD70BDFFFFFF7F1F22030C02D10F22FD
:100A2000000402D0030E03D004E00020014670470A
:100A30000002083A030F01D10001121F830F01D1F8
:100A40008000921E002801DB4000521E1205511842
:100A50004205C012411810467047C10FC90700D0A7
:100A60004042012292071143D6E701218907D3E7CB
:100A70000121C9050123411842001B06D3185B0E52
:100A80000AD0C1100722D206891840075242D1422B
:100A900001D5520089187047090208D50146002A7D
:100AA00003D0C10FC90700207047104670474202AB
:100AB00002D0002002497047072109050143F4E7ED
:100AC0000000F87FFFB50C461E468FB003CA0890A1
:100AD00009914F007D0D00D16D1E002108460020B8
:100AE000C0460321099A89050840002A03DA8200DA
:100AF000801840080840800D01280A9002DD00207F
:100B0000C0430A90089807430DD0F048F0492818D0
:100B100048430714189800281DD07542291E1DDD72
:100B20000A9842421BE01898012802D00020302188
:100B300004E00020F24305E02154401CB042FBDBFE
:100B400030460022189B002121540F998B600A60C7
:100B5000486013B0F0BDBD1B6D1CDFE70A9A002989
:100B600000DA69420BA800F05BFA0BAB07CB03ABD2
:100B700007C30899099800F0BFFA6B4607C30146FE
:100B8000D4480918002D00910BDDD24903980A9A28
:100B900049424018002303A90390684600F01CFD59
:100BA00008E003990A9A0023081803A903906846ED
:100BB00000F0BCFC6B4607C30004000C03D000200F
:100BC000C043410800E01046189A002A03D00022D2
:100BD000009215461EE0751E05D400F09FF93032D4
:100BE00062556D1EF9D501220843079602D00022F6
:100BF0007F1C04E02078302801D100227F1E002ACB
:100C0000069787D01EE0112D07DA00F087F9303201
:100C100062556D1C02460A43F5D1084303D0009883
:100C2000002819D00EE00021681E05E0235C625CFC
:100C300063542254401E491C8142F7DBA81B401E0E
:100C400007950690079A18990020A0540F98079BC3
:100C5000069A81600CC07CE711260020189059E7A5
:100C6000D21DF0B50D460446D10893B0C90003C9A2
:100C70000C900D9101F0ACFB02460D98C00F01D015
:100C80002D2007E02068810701D52B2002E04007D6
:100C9000C00F4001032A0F9001D0072A05DB03464D
:100CA0002946204600F078F90EE12078800601D52B
:100CB000E76900E006272846652D04D0662814D091
:100CC000672D69D12DE00020112F009001DB112349
:100CD00000E07B1C0CAA03A910A8FFF7F3FE1199F2
:100CE000002610987D1C0E9142E001203B460CAA84
:100CF000C0070B900120009003A910A8FFF7E2FEA7
:100D0000119D12981099002600280E9501D1781C8B
:100D10000D18781B02D446427D1C761EE81B0090FD
:100D20003AE0012F00DA01270020112F009001DDA9
:100D3000112300E03B460CAA03A910A8FFF7C2FE4E
:100D400011993D46109800260E91217809070BD481
:100D50000E99A94200DA0D4603A9012D04DD4A19B6
:100D6000203AD27F302A06D0B84201DA011D04DAD7
:100D7000012100910FE06D1EEFE7002802DC8619CB
:100D80002D1A03E0411CA94200DD0D46801B401CCA
:100D900000900120C0070B902078000705D4009830
:100DA000A84202DB0020C043009069460020C872C0
:100DB0000B98012102AF0337C907884225D00220D2
:100DC00010902B2011900B9800280BDA40420B90CA
:100DD0002D20119006E00B9800F04EFC30317F1E64
:100DE0000B9039701099481E00291090F3DC0B9875
:100DF0000028F0D111987F1E38702088000501D599
:100E0000452000E065207F1E387001A8C01BC01D72
:100E10000B900F98002800D0012041190098C017AE
:100E200009180B980818A169081A401EA0612078BB
:100E3000C00602D42046C046C0460F98002805D000
:100E40006268A1689047206A401C20622078C00632
:100E500025D52046C046C04621E0002E07DB0E986F
:100E6000B04204DD03A86268805DA16802E06268A8
:100E7000A16830209047206A761C401C20620098B0
:100E8000401E002800900AD100F044F8C068626853
:100E90000168405CA1689047206A401C2062284697
:100EA0006D1E0028D9DC07E062683878A1687F1CD5
:100EB0009047206A401C20620B99481E00290B9025
:100EC000F2DC2046C046C046032042E601FCFFFF9C
:100ED000104D0000E1DFFFFF01694A1C0261087844
:100EE000704700B58FB0029100210591054901932B
:100EF00079440391114604906846FFF781F90FB0D9
:100F000000BD0000E5FFFFFF0A681070521C0A6078
:100F10007047000000487047400000200B4670B545
:100F2000024689078008084319469D08141AA941FA
:100F300025090807054308092C194841250A010617
:100F40000D43010A2C194141200C0D0428430D0CBE
:100F500000194D41002140194D41C008690708435F
:100F6000E908840F8D002543840024184D4124197D
:100F70006D41121BAB4107E00925ED432C115219BD
:100F800063410024401C61411C460A250026551B74
:100F9000B441F1D270BD0000F8B51F4604460123EC
:100FA0000068DB02032601461840072A05DB0028FB
:100FB00001D017A506E017A504E0002801D016A56A
:100FC00000E016A5102081432160A069C01E002FFB
:100FD000A06101D0401EA0612046C046C046002F3F
:100FE00009D038466268A1689047206A401C206298
:100FF000C01C206206E0206AFAE762682878A168CF
:101000006D1C9047761EF8D22046C046C046F8BDFB
:101010004E414E006E616E00494E4600696E66009C
:10102000F7B516468AB0334878446C4603467C339D
:10103000C06F5A689B680DC42E487844763003AC64
:101040000DC80DC43720C001081837211B30FFF729
:101050008FF905460C46803D1B3C02D564420120B9
:1010600000E000200027099010E0E0070CD00C20E1
:1010700020497843794432464C3941186846012367
:1010800000F054FA6B4607C364107F1C002CECD1AF
:10109000184F7F442E3F16E0E80712D02001C019F8
:1010A0000EC80691089307920068F04201D1981982
:1010B00008903246012306A903A800F037FA03ABD3
:1010C00007C36D10641C002DE6D10998002806D0D6
:1010D00032466946012303A800F07EFA05E00123A9
:1010E0003246694603A800F021FA0A9B07C30DB0F7
:1010F000F0BD00009C140000034640000A4610B5F5
:10110000400D0BD00121C9070F24A40200191C03B4
:1011100064082143540D2143D20207E0002101203D
:10112000F2E7D40F490021435200401E0029F8DAAB
:10113000DB0FDB07184310BDFFB50D46144685B025
:101140004868516801F02BF900910190A868A168E6
:1011500001F025F902910390A868616801F01FF978
:10116000029A12188242029201D2012000E000206D
:10117000019A0B18D2180028019202D08A4202D993
:1011800003E08A4201D2012000E000200099081803
:1011900000906868A16801F002F9029A1218824270
:1011A000029201D2012000E00020019A0B18D2180F
:1011B0000028019202D08A4202D903E08A4201D279
:1011C000012000E00020009908180090286821689C
:1011D00040004900400849084018FA49471814E0FF
:1011E00001994000C90F08430090019802994000FE
:1011F000C90F08430190029803994000C90F0843A2
:101200000290039840007F1E039000980028E7DAC0
:101210000898002801D0EC4E00E00026B74201DA21
:10122000012000E00020002804902AD0F71BF806D7
:10123000C00E15D0029B2021091A039A8B401A4335
:101240000392029A019BC2408B401A430292019A78
:10125000009BC2408B4000991A430192C14000910B
:101260007B110DD06F460320C11A03D500218200E7
:10127000B95003E08A008100BA587A50401EF3D575
:10128000374603980299002800D0012001430898AE
:101290000291002808460CD0002800D001200199B6
:1012A000019A490508430121D20AC902D2020192DA
:1012B00000E001210E9B0122D207012B02D0002B5E
:1012C00003D013E0002807D120E0904204D89042D8
:1012D0000CD1019B0B4209D0019B5918019105D1FA
:1012E0000099491C009101D17F1C009200280DD06B
:1012F000102108460020C0460498002806D00F9808
:10130000002803D0082108460020C046286821682C
:10131000019B009A4840C10F0598C90739430EC088
:1013200009B0F0BDFFB587B0099A089808995368CD
:10133000926840688968964600220393174694464F
:10134000089A12685300099A5B0812685200520802
:101350009A1A9E4BD4180A9A002A01D0352200E02E
:10136000402206920022012315460492DB070593D2
:1013700024E0002D05D175460346039E4D1BB34165
:1013800009D375466646039B491B049D9841059BFE
:101390007519AC465F4163463B4308D0059B049EEC
:1013A000DD0776082E435B080496059301E0521E84
:1013B000641EC50FED0749184041521C069B9A4216
:1013C000D7DB002D04D17546039A6B1A824101D2F6
:1013D00003200CE0039A0B466B404240134303D0BA
:1013E000014303D0012002E0022000E0002061461A
:1013F00001910021009702910A99002905D06146C8
:1014000040020143704B019102E0800700230290EB
:101410009C4201DA012000E0002007003AD01A1BAC
:10142000D006C00E15D0029D2021019C091AC5408E
:101430008C402543029C8C4000D001242543019C14
:101440000295009DC4408D4000992C430194C140F9
:10145000009154111DD06D460221002202290CD1A9
:101460000320001B07E0002804DB8600AE59002E95
:1014700000D00122401C0328F5DB081B02D58800A0
:101480002A5004E08000285810438A00A850491EC2
:10149000E3D51C460A98002802980CD0002800D0FA
:1014A00001200199019A490508430121D20AC90284
:1014B000D202019200E00121109B0122D207012BF0
:1014C00002D0002B03D013E0002807D11FE0904288
:1014D00004D890420CD1019B0B4209D0019B5918B2
:1014E000019105D10099491C009101D1641C009221
:1014F00000280CD0102108460020C046002F06D03E
:101500001198002803D0082108460020C0460898FA
:101510000999019A009B006809684840C10F079823
:10152000C907214382600AC00BB0F0BD00B585B089
:10153000019300920A460146002302A8FFF7FCFD32
:1015400002A807C805B000BDFFB50A461F4685B012
:101550000799019301230091014602A8FFF7ECFDD2
:1015600002990398049ECA0F4900D20700920F22E5
:10157000490892028C1A0021002800DB0C46450025
:1015800013486D08844214D3079A002A04DA441ED3
:101590000026104DF64302E004460D460E4610218B
:1015A00008460020C046002F03D004210846002032
:1015B000C0462005E90A0843009908436905F20A74
:1015C0001143ADE602C0FFFF013C0000FF3F0000F9
:1015D000FF070000FFFFFF7F00B585B00193009279
:1015E0000A460146002302A8FFF79CFE02A807C88E
:1015F000A8E7FFB50A461F4685B007990193012366
:101600000091014602A8FFF78DFE02990398049EFF
:10161000CA0F4900D20700920F22490892028C1A81
:101620000021002800DB0C46450011486D0884426B
:1016300014D3079A002A04DA441E00260D4DF643FF
:1016400002E004460D460E46102108460020C04622
:10165000002F03D0042108460020C0462005E90AD7
:101660000843009908436905F20A114358E600004F
:10167000FF070000FFFFFF7F01468008081A0209EC
:101680001018020A1018020C1018C0088200121854
:101690005200891A01E0401C0A390A29FBD270471E
:1016A00000487047200000207546FFF7F9FFAE465E
:1016B000050069465346C008C000854618B020B5ED
:1016C000FEF778FD60BCB64600260027C0C5C0C541
:1016D000C0C5C0C5C0C5C0C5C0C5C0C5403D49081E
:1016E00049008D46704710B50446C046C0462046A6
:1016F000FEF74FFD10BD000082078B079A423FD1D5
:1017000070B5920F0AD0032402780B78401C491C54
:10171000002A33D09A4231D12042F5D1214EF40132
:1017200004C808C9951B9543254018D19A420FD18A
:1017300004C808C9951B9543254010D19A4207D18A
:1017400004C808C9951B9543254008D19A42E7D0A3
:1017500012BA1BBA01209A4200D2404270BD12BA9E
:101760001BBA2DBA18241000E0401900E140401ABD
:1017700005D12E00E64002D1083CF4D1D01A70BD4C
:1017800002780B78401C491C002A09D09A4207D1E4
:1017900002780B78401C491C002A01D09A42EFD0F5
:1017A000D01A70470101010101491820ABBEFEE7C4
:1017B0002600020070470000F0B583B0AF48016812
:1017C000890708D40168890705D40168890702D40C
:1017D00001688907F3D5AA4A0023136011682729F5
:1017E00008D81168272905D81168272902D8116857
:1017F0002829F3D3016802910168890712D501688D
:1018000089070FD5016889070CD501688907F3D4CA
:1018100008E00168890708D40168890705D40168D0
:10182000890702D401688907F3D513601168272955
:1018300008D81168272905D81168272902D8116806
:101840002829F3D3016801910168890712D501683D
:1018500089070FD5016889070CD501688907F3D47A
:1018600008E00168890708D40168890705D4016880
:10187000890702D401688907F3D513601168272905
:1018800008D81168272905D81168272902D81168B6
:101890002829F3D3016800910168890712D50168EE
:1018A00089070FD5016889070CD501688907F3D42A
:1018B00008E00168890708D40168890705D4016830
:1018C000890702D401688907F3D5136011682729B5
:1018D00008D81168272905D81168272902D8116866
:1018E0002829F3D306680168890712D5016889079A
:1018F0000FD5016889070CD501688907F3D408E082
:101900000168890708D40168890705D40168890737
:1019100002D401688907F3D513601168272908D814
:101920001168272905D81168272902D811682829A4
:10193000F3D307680168890712D5016889070FD5B5
:10194000016889070CD501688907F3D408E00168AC
:10195000890708D40168890705D40168890702D47A
:1019600001688907F3D513601168272908D8116821
:10197000272905D81168272902D811682829F3D307
:1019800001680468A40712D50468A4070FD5046889
:10199000A4070CD50468A407F3D408E00468A407DE
:1019A00008D40468A40705D40468A40702D4046812
:1019B000A407F3D513601468272C08D81468272CC3
:1019C00005D81468272C02D81468282CF3D304688F
:1019D0000568AD0712D50568AD070FD50568AD07D9
:1019E0000CD50568AD07F3D408E00568AD0708D449
:1019F0000568AD0705D40568AD0702D40568AD07D5
:101A0000F3D513601368272B08D81368272B05D844
:101A10001368272B02D81368282BF3D302680368B6
:101A20009B0708D503689B0705D503689B0702D56C
:101A300003689B07F3D4009800012023034001981A
:101A400040014025054002984008C0014019C018D7
:101A5000F30010251D404019BB0008251D4040190A
:101A6000490004230B40C01802210C4000199107C3
:101A7000C90F0143C8B203B0F0BDC046100000500A
:101A8000240000409848C168491CC1607047C046A6
:101A90007047000000B591B06349086801273843DA
:101AA0000860624D2C46243C002626606048006891
:101AB000604900F079FB401E68605F48A8602846D6
:101AC00010380760206838432060574A106810219A
:101AD00001431160564C2068564900F065FB401EDA
:101AE000564988625448C8620868384308607D20B7
:101AF0000890C100206800F057FB401E5049486024
:101B000006968E6007200860474A10460C38016828
:101B10003943016002977804116801431160CF20B6
:101B2000000105210E073168814331604B2004011B
:101B30002146103932680A43326011218902326A23
:101B40000A433262C1013A48006800F02DFB3D4F64
:101B500039461039086038461C380D210160089854
:101B6000000103A951C10C20C043B1680140B1601C
:101B7000726802218A437260F2680240F260326841
:101B800004231343082293433360B162069B2B6006
:101B90002A68A24208D22A68A24205D22A68A24232
:101BA00002D22A68A242F3D3B1612B6029681329BB
:101BB00008D82968132905D82968132902D8296863
:101BC0001429F3D3F1680140F160316801403160BC
:101BD000F1680140F1603168014031602B60286894
:101BE000272808D82868272805D82868272802D851
:101BF00028682828F3D3306980071846124A26D46B
:101C00000020286029684F2908D829684F2905D85D
:101C100029684F2902D829685029F3D331698907E7
:101C200014D5029813E0C04638100240240000404A
:101C30000000002040420F00FFFF000000100040A5
:101C400010E000E01C44004080000020C0433169E7
:101C5000890708D53169890705D53169890702D512
:101C600031698907F3D41070FFF7A6FD1E4948704B
:101C7000FFF7A2FD1C498870FFF79EFD1A49C87046
:101C8000FFF79AFD18490871FFF796FD1649C880BD
:101C900015480079C97809020C1813480481807826
:101CA00011494978090208180F49488180B2FEF7A6
:101CB000DCFE002632460D4BFEF78AFCFEF74AFC9E
:101CC0000146094808914161A0B2FEF7CEFE3246B6
:101CD000064BFEF77DFCFEF73DFC034B07901861B9
:101CE000D868039A04E0C046800000200000244029
:101CF000D968091A91420BD2D968091A914207D2C0
:101D0000D968091A914203D2D968091A9142EFD3CE
:101D10000898FEF7ADFE08900C460798FEF7A8FE5F
:101D200002460B4608980090019409AC2046EBA1AE
:101D3000FEF752FA2046FEF7EBFA0028049C29D061
:101D40000321042800D3C4E1084023D009A9895DF8
:101D5000F9603968090608D43968090605D4396874
:101D6000090602D439680906F3D5012812D009A959
:101D700071184978F9603968090608D43968090684
:101D800005D43968090602D439680906F3D5022852
:101D900000D0F3E1D6490879F8603868000608D425
:101DA0003868000605D43868000602D43868000692
:101DB000F3D54879F860059EFA4B3868000608D4D8
:101DC0003868000605D43868000602D43868000672
:101DD000F3D58879F8603868000608D438680006BA
:101DE00005D43868000602D438680006F3D5C879EF
:101DF000F8603868000608D43868000605D43868EA
:101E0000000602D438680006F3D5087AF86038680E
:101E1000000608D43868000605D43868000602D4E5
:101E200038680006F3D5487AF8603868000608D4A8
:101E30003868000605D43868000602D43868000601
:101E4000F3D5887AF8603868000608D43868000648
:101E500005D43868000602D438680006F3D5C87A7D
:101E6000F8603868000608D43868000605D4386879
:101E7000000602D438680006F3D5087BF86038689D
:101E8000000608D43868000605D43868000602D475
:101E900038680006F3D5487BF8603868000608D437
:101EA0003868000605D43868000602D43868000691
:101EB000F3D5887BF8603868000608D438680006D7
:101EC00005D43868000602D438680006F3D5C87B0C
:101ED000F8603868000608D43868000605D4386809
:101EE000000602D438680006F3D5087CF86038682C
:101EF000000608D43868000605D43868000602D405
:101F000038680006F3D5487CF8603868000608D4C5
:101F10003868000605D43868000602D43868000620
:101F2000F3D5887CF8603868000608D43868000665
:101F300005D43868000602D438680006F3D5C87C9A
:101F4000F8603868000608D43868000605D4386898
:101F5000000602D438680006F3D5087DF8603868BA
:101F6000000608D43868000605D43868000602D494
:101F700038680006F3D5487DF8603868000608D454
:101F80003868000605D43868000602D438680006B0
:101F9000F3D5887DF8603868000608D438680006F4
:101FA00005D43868000602D438680006F3D5C87D29
:101FB000F8603868000608D43868000605D4386828
:101FC000000602D438680006F3D5087EF860386849
:101FD000000608D43868000605D43868000602D424
:101FE00038680006F3D5487EF8603868000608D4E3
:101FF0003868000605D43868000602D43868000640
:10200000F3D5887EF8603868000608D43868000682
:1020100005D43868000602D438680006F3D5C87EB7
:10202000F8603868000608D43868000605D43868B7
:10203000000602D438680006F3D5087FF8603868D7
:10204000000608D43868000605D43868000602D4B3
:1020500038680006F3D5487FF8603868000608D471
:102060003868000605D43868000602D438680006CF
:10207000F3D5887FF8603868000608D43868000611
:1020800005D43868000602D438680006F3D520204D
:10209000B061002129602A689A4208D22A689A42CF
:1020A00005D22A689A4202D22A689A42F3D3B062D1
:1020B00029602868984200D355E52868984200D3E3
:1020C00051E52868984200D34DE528689842F0D33E
:1020D00049E502468A43002610E0C046543D252EBD
:1020E0003166432C20483D252E316625250D0A00FA
:1020F00000000020361D964200D125E609AB9B5D0D
:10210000FB603B681B0608D43B681B0605D43B6894
:102110001B0602D43B681B06F3D509AB9B195B7801
:10212000FB603B681B0608D43B681B0605D43B6874
:102130001B0602D43B681B06F3D509AB9B199B78A1
:10214000FB603B681B0608D43B681B0605D43B6854
:102150001B0602D43B681B06F3D509AB9B19DB7841
:10216000FB603B681B06C5D43B681B06C2D43B68BA
:102170001B06BFD43B681B06F3D5BBE709A8301884
:102180008078F8603868000600D503E638680006F5
:1021900000D5FFE53868000600D5FBE53868000685
:1021A000F0D5F7E5E8FD000043088B421AD3002282
:1021B00003098B4279D3030A8B425ED3030B8B4214
:1021C00042D3030C8B4227D30902FF2212BA030C1D
:1021D0008B4202D31212090203D0030B8B4233D37A
:1021E0001AE0D3E0411A8041401C704703460B437C
:1021F00071D443088B42F5D3002203098B4254D398
:10220000030A8B4239D3030B8B421DD3030C8B4241
:1022100002D394466EE0090AC30B8B4201D3CB0371
:10222000C01A5241830B8B4201D38B03C01A524117
:10223000430B8B4201D34B03C01A5241030B8B4219
:1022400001D30B03C01A5241C30A8B4201D3CB0204
:10225000C01A5241830A8B4201D38B02C01A5241E9
:10226000430A8B4201D34B02C01A5241030A8B42EC
:1022700001D30B02C01A5241CDD2C3098B4201D304
:10228000CB01C01A524183098B4201D38B01C01A82
:10229000524143098B4201D34B01C01A52410309F9
:1022A0008B4201D30B01C01A5241C3088B4201D3A8
:1022B000CB00C01A524183088B4201D38B00C01A55
:1022C000524143088B4201D34B00C01A5241411A7C
:1022D000524110007047CA0F00D04942031000D38A
:1022E0004042534000229C4603098B422DD3030AEF
:1022F0008B4212D38901FC2212BA030A8B420CD3FF
:10230000890192118B4208D3890192118B4204D327
:10231000890137D0921100E08909C3098B4201D3AA
:10232000CB01C01A524183098B4201D38B01C01AE1
:10233000524143098B4201D34B01C01A5241030958
:102340008B4201D30B01C01A5241C3088B4201D307
:10235000CB00C01A524183088B4201D38B00C01AB4
:102360005241D9D243088B4201D34B00C01A52418B
:10237000411A00D201465241104663465B1000D319
:102380004042704763465B1000D3404201B50021D4
:10239000004201D0C9430846C046C04602BDF8B558
:1023A000040C8BB2264682B25E43104658430D0C95
:1023B000370C360400218019164679416E43370CDC
:1023C00036048019264679416E438919F8BD00000C
:1023D0004900CA020243100000D004204A0D01D077
:1023E00001221043044A490D914201D102210843C0
:1023F000012800D105207047FF07000030380A2867
:1024000001D20120704700207047000010B500295C
:102410000AD00878002807D005487844FFF76CF9FF
:10242000002801D0002010BD0248784410BD0000F3
:10243000620100005A01000003B402487844844657
:1024400003BC604721E8FFFF80807F7E7D7C7B7A34
:102450007978777676757473727171706F6E6E6D50
:102460006C6C6B6A6A6968686766666564646363F6
:1024700062616160605F5F5E5E5D5D5C5C5B5B5A7C
:102480005A595958585757565655555554545353E9
:1024900052525251515050504F4F4F4E4E4D4D4D44
:1024A0004C4C4C4B4B4B4A4A4A494949484848478F
:1024B00047474746464645454544444444434343CD
:1024C000434242424241414102400000000000A01C
:1024D0000000000005400000000000C800000000EF
:1024E0000C4000000000409C00000000194000006B
:1024F0000020BCBE0000000034400000BFC91B8E9D
:1025000000000004B5400000504BCFD06607E2CF7A
:10251000010000006C4100003E8251AADFEEA734AA
:1025200001000000D9420000DCB5A0E23A301F975C
:10253000FFFFFFFFB4450000FD25A0C8E9A3C14F80
:10254000FFFFFFFFFF3F00000000008000000000D1
:10255000FF3F0000000000800000000098250008F8
:1025600000000020200000001C010008B825000821
:1025700020000020780600003C0100081C0000003C
:1025800043000000F8FFFFFF0C0000000E000000F9
:102590000F0000002E0000000000200057656C6353
:1025A0006F6D650A0D0000000000000000000000D3
:0825B000000000000000000023
:04000005080000C12E
:00000001FF
